{
  "contractName": "TokenFaucet",
  "abi": [
    {
      "constant": false,
      "inputs": [],
      "name": "renounceOwnership",
      "outputs": [],
      "payable": false,
      "stateMutability": "nonpayable",
      "type": "function"
    },
    {
      "constant": false,
      "inputs": [
        {
          "name": "tokenAddress",
          "type": "address"
        },
        {
          "name": "tokenAmount",
          "type": "uint256"
        }
      ],
      "name": "recoverERC20",
      "outputs": [],
      "payable": false,
      "stateMutability": "nonpayable",
      "type": "function"
    },
    {
      "constant": true,
      "inputs": [],
      "name": "owner",
      "outputs": [
        {
          "name": "",
          "type": "address"
        }
      ],
      "payable": false,
      "stateMutability": "view",
      "type": "function"
    },
    {
      "constant": true,
      "inputs": [],
      "name": "isOwner",
      "outputs": [
        {
          "name": "",
          "type": "bool"
        }
      ],
      "payable": false,
      "stateMutability": "view",
      "type": "function"
    },
    {
      "constant": false,
      "inputs": [
        {
          "name": "newOwner",
          "type": "address"
        }
      ],
      "name": "transferOwnership",
      "outputs": [],
      "payable": false,
      "stateMutability": "nonpayable",
      "type": "function"
    },
    {
      "inputs": [
        {
          "name": "token",
          "type": "address"
        },
        {
          "name": "dailyRate",
          "type": "uint256"
        },
        {
          "name": "referralPerMille",
          "type": "uint256"
        }
      ],
      "payable": false,
      "stateMutability": "nonpayable",
      "type": "constructor"
    },
    {
      "payable": true,
      "stateMutability": "payable",
      "type": "fallback"
    },
    {
      "anonymous": false,
      "inputs": [
        {
          "indexed": true,
          "name": "previousOwner",
          "type": "address"
        },
        {
          "indexed": true,
          "name": "newOwner",
          "type": "address"
        }
      ],
      "name": "OwnershipTransferred",
      "type": "event"
    },
    {
      "constant": false,
      "inputs": [],
      "name": "getTokens",
      "outputs": [],
      "payable": false,
      "stateMutability": "nonpayable",
      "type": "function"
    },
    {
      "constant": false,
      "inputs": [
        {
          "name": "referral",
          "type": "address"
        }
      ],
      "name": "getTokensWithReferral",
      "outputs": [],
      "payable": false,
      "stateMutability": "nonpayable",
      "type": "function"
    },
    {
      "constant": true,
      "inputs": [],
      "name": "token",
      "outputs": [
        {
          "name": "",
          "type": "address"
        }
      ],
      "payable": false,
      "stateMutability": "view",
      "type": "function"
    },
    {
      "constant": true,
      "inputs": [],
      "name": "dailyRate",
      "outputs": [
        {
          "name": "",
          "type": "uint256"
        }
      ],
      "payable": false,
      "stateMutability": "view",
      "type": "function"
    },
    {
      "constant": true,
      "inputs": [],
      "name": "referralTokens",
      "outputs": [
        {
          "name": "",
          "type": "uint256"
        }
      ],
      "payable": false,
      "stateMutability": "view",
      "type": "function"
    },
    {
      "constant": true,
      "inputs": [],
      "name": "totalDistributedTokens",
      "outputs": [
        {
          "name": "",
          "type": "uint256"
        }
      ],
      "payable": false,
      "stateMutability": "view",
      "type": "function"
    },
    {
      "constant": true,
      "inputs": [
        {
          "name": "account",
          "type": "address"
        }
      ],
      "name": "receivedTokens",
      "outputs": [
        {
          "name": "",
          "type": "uint256"
        }
      ],
      "payable": false,
      "stateMutability": "view",
      "type": "function"
    },
    {
      "constant": true,
      "inputs": [
        {
          "name": "account",
          "type": "address"
        }
      ],
      "name": "lastUpdate",
      "outputs": [
        {
          "name": "",
          "type": "uint256"
        }
      ],
      "payable": false,
      "stateMutability": "view",
      "type": "function"
    },
    {
      "constant": true,
      "inputs": [
        {
          "name": "account",
          "type": "address"
        }
      ],
      "name": "nextClaimTime",
      "outputs": [
        {
          "name": "",
          "type": "uint256"
        }
      ],
      "payable": false,
      "stateMutability": "view",
      "type": "function"
    },
    {
      "constant": true,
      "inputs": [
        {
          "name": "account",
          "type": "address"
        }
      ],
      "name": "getReferral",
      "outputs": [
        {
          "name": "",
          "type": "address"
        }
      ],
      "payable": false,
      "stateMutability": "view",
      "type": "function"
    },
    {
      "constant": true,
      "inputs": [
        {
          "name": "account",
          "type": "address"
        }
      ],
      "name": "earnedByReferral",
      "outputs": [
        {
          "name": "",
          "type": "uint256"
        }
      ],
      "payable": false,
      "stateMutability": "view",
      "type": "function"
    },
    {
      "constant": true,
      "inputs": [
        {
          "name": "account",
          "type": "address"
        }
      ],
      "name": "getReferredAddresses",
      "outputs": [
        {
          "name": "",
          "type": "address[]"
        }
      ],
      "payable": false,
      "stateMutability": "view",
      "type": "function"
    },
    {
      "constant": true,
      "inputs": [
        {
          "name": "account",
          "type": "address"
        }
      ],
      "name": "getReferredAddressesLength",
      "outputs": [
        {
          "name": "",
          "type": "uint256"
        }
      ],
      "payable": false,
      "stateMutability": "view",
      "type": "function"
    },
    {
      "constant": true,
      "inputs": [],
      "name": "remainingTokens",
      "outputs": [
        {
          "name": "",
          "type": "uint256"
        }
      ],
      "payable": false,
      "stateMutability": "view",
      "type": "function"
    },
    {
      "constant": true,
      "inputs": [
        {
          "name": "index",
          "type": "uint256"
        }
      ],
      "name": "getRecipientAddress",
      "outputs": [
        {
          "name": "",
          "type": "address"
        }
      ],
      "payable": false,
      "stateMutability": "view",
      "type": "function"
    },
    {
      "constant": true,
      "inputs": [],
      "name": "getRecipientsLength",
      "outputs": [
        {
          "name": "",
          "type": "uint256"
        }
      ],
      "payable": false,
      "stateMutability": "view",
      "type": "function"
    }
  ],
  "bytecode": "0x60806040526201518060015534801561001757600080fd5b50604051606080610d5083398101604081815282516020840151919093015160008054600160a060020a031916331780825592939192600160a060020a0316917f8be0079c531659141344cd1fd0a4f28419497f9722a3daafe3b4186f6b6457e0908290a3600160a060020a038316151561009157600080fd5b6000821161009e57600080fd5b600081116100ab57600080fd5b60028054600160a060020a031916600160a060020a039490941693909317909255600355600455610c6f806100e16000396000f30060806040526004361061011c5763ffffffff7c01000000000000000000000000000000000000000000000000000000006000350416631833701281146101315780633b0f0f2f14610165578063661f905b146101865780636f1bfbb6146101f757806370f23da71461022a578063715018a61461024b57806374df19c3146102605780638980f11f146102755780638da5cb5b146102995780638f32d59b146102ae5780639303b0b8146102d7578063aa6ca808146102ec578063bf58390314610301578063cb03fb1e14610316578063d19c08ef14610337578063db5084ab14610358578063dbc3e35b1461036d578063e2fdc84514610382578063f2fde38b146103a3578063fc0c546a146103c4578063fea5ed16146103d9575b341561012757600080fd5b61012f6103fa565b005b34801561013d57600080fd5b50610149600435610407565b60408051600160a060020a039092168252519081900360200190f35b34801561017157600080fd5b50610149600160a060020a0360043516610433565b34801561019257600080fd5b506101a7600160a060020a0360043516610454565b60408051602080825283518183015283519192839290830191858101910280838360005b838110156101e35781810151838201526020016101cb565b505050509050019250505060405180910390f35b34801561020357600080fd5b50610218600160a060020a03600435166104cd565b60408051918252519081900360200190f35b34801561023657600080fd5b50610218600160a060020a03600435166104eb565b34801561025757600080fd5b5061012f61053a565b34801561026c57600080fd5b506102186105a4565b34801561028157600080fd5b5061012f600160a060020a03600435166024356105aa565b3480156102a557600080fd5b50610149610670565b3480156102ba57600080fd5b506102c361067f565b604080519115158252519081900360200190f35b3480156102e357600080fd5b50610218610690565b3480156102f857600080fd5b5061012f6103fa565b34801561030d57600080fd5b506102186106c0565b34801561032257600080fd5b50610218600160a060020a0360043516610756565b34801561034357600080fd5b5061012f600160a060020a0360043516610774565b34801561036457600080fd5b50610218610781565b34801561037957600080fd5b50610218610787565b34801561038e57600080fd5b50610218600160a060020a036004351661078d565b3480156103af57600080fd5b5061012f600160a060020a03600435166107ab565b3480156103d057600080fd5b506101496107c7565b3480156103e557600080fd5b50610218600160a060020a03600435166107d6565b6104053360006107f1565b565b600060078281548110151561041857fe5b600091825260209091200154600160a060020a031692915050565b600160a060020a039081166000908152600660205260409020600301541690565b600160a060020a0381166000908152600860209081526040918290206001018054835181840281018401909452808452606093928301828280156104c157602002820191906000526020600020905b8154600160a060020a031681526001909101906020018083116104a3575b50505050509050919050565b600160a060020a031660009081526008602052604090206001015490565b600160a060020a03811660009081526006602052604081205460ff161561053157600154600160a060020a03831660009081526006602052604090206002015401610534565b60005b92915050565b61054261067f565b151561054d57600080fd5b60008054604051600160a060020a03909116907f8be0079c531659141344cd1fd0a4f28419497f9722a3daafe3b4186f6b6457e0908390a36000805473ffffffffffffffffffffffffffffffffffffffff19169055565b60035490565b6105b261067f565b15156105bd57600080fd5b81600160a060020a031663a9059cbb6105d4610670565b836040518363ffffffff167c01000000000000000000000000000000000000000000000000000000000281526004018083600160a060020a0316600160a060020a0316815260200182815260200192505050602060405180830381600087803b15801561064057600080fd5b505af1158015610654573d6000803e3d6000fd5b505050506040513d602081101561066a57600080fd5b50505050565b600054600160a060020a031690565b600054600160a060020a0316331490565b60006106bb6103e86106af600454600354610b5890919063ffffffff16565b9063ffffffff610b9116565b905090565b600254604080517f70a082310000000000000000000000000000000000000000000000000000000081523060048201529051600092600160a060020a0316916370a0823191602480830192602092919082900301818787803b15801561072557600080fd5b505af1158015610739573d6000803e3d6000fd5b505050506040513d602081101561074f57600080fd5b5051905090565b600160a060020a031660009081526006602052604090206002015490565b61077e33826107f1565b50565b60055490565b60075490565b600160a060020a031660009081526006602052604090206001015490565b6107b361067f565b15156107be57600080fd5b61077e81610bb4565b600254600160a060020a031690565b600160a060020a031660009081526008602052604090205490565b600080426107fe856104eb565b111561080957600080fd5b600160a060020a03841660009081526006602052604090205460ff161515610908576007805460018082019092557fa66cc928b5edb82af9bd49922954155ab7b0942694bea4ce44661d9a8736c68801805473ffffffffffffffffffffffffffffffffffffffff1916600160a060020a038781169182179092556000908152600660205260409020805460ff191690921790915583161561090857600160a060020a038085166000818152600660209081526040808320600301805495891673ffffffffffffffffffffffffffffffffffffffff1996871681179091558352600882528220600190810180549182018155835291200180549092161790555b600160a060020a038416600090815260066020526040902042600282015560035460019091015461093e9163ffffffff610c3116565b600160a060020a03851660009081526006602052604090206001015560035460055461096f9163ffffffff610c3116565b600555600254600354604080517fa9059cbb000000000000000000000000000000000000000000000000000000008152600160a060020a03888116600483015260248201939093529051919092169163a9059cbb9160448083019260209291908290030181600087803b1580156109e557600080fd5b505af11580156109f9573d6000803e3d6000fd5b505050506040513d6020811015610a0f57600080fd5b5050600160a060020a03848116600090815260066020526040902060030154161561066a57600160a060020a03808516600090815260066020526040902060030154169150610a5c610690565b600160a060020a038316600090815260086020526040902054909150610a88908263ffffffff610c3116565b600160a060020a038316600090815260086020526040902055600554610ab4908263ffffffff610c3116565b600555600254604080517fa9059cbb000000000000000000000000000000000000000000000000000000008152600160a060020a038581166004830152602482018590529151919092169163a9059cbb9160448083019260209291908290030181600087803b158015610b2657600080fd5b505af1158015610b3a573d6000803e3d6000fd5b505050506040513d6020811015610b5057600080fd5b505050505050565b600080831515610b6b5760009150610b8a565b50828202828482811515610b7b57fe5b0414610b8657600080fd5b8091505b5092915050565b600080808311610ba057600080fd5b8284811515610bab57fe5b04949350505050565b600160a060020a0381161515610bc957600080fd5b60008054604051600160a060020a03808516939216917f8be0079c531659141344cd1fd0a4f28419497f9722a3daafe3b4186f6b6457e091a36000805473ffffffffffffffffffffffffffffffffffffffff1916600160a060020a0392909216919091179055565b600082820183811015610b8657600080fd00a165627a7a723058201c69375ffc159fe011c742629651e332a948bef0d3b6d4a3e0575ec898aef98f0029",
  "source": "pragma solidity ^0.4.25;\n\nimport \"openzeppelin-solidity/contracts/token/ERC20/ERC20.sol\";\nimport \"eth-token-recover/contracts/TokenRecover.sol\";\n\n/**\n * @title TokenFaucet\n * @author Vittorio Minacori (https://github.com/vittominacori)\n * @dev Implementation of a TokenFaucet\n */\ncontract TokenFaucet is TokenRecover {\n  using SafeMath for uint256;\n\n  // struct representing the faucet status for an account\n  struct RecipientDetail {\n    bool exists;\n    uint256 tokens;\n    uint256 lastUpdate;\n    address referral;\n  }\n\n  // struct representing the referral status\n  struct ReferralDetail {\n    uint256 tokens;\n    address[] recipients;\n  }\n\n  // the time between two tokens claim\n  uint256 private _pauseTime = 1 days;\n\n  // the token to distribute\n  ERC20 private _token;\n\n  // the daily rate of tokens distributed\n  uint256 private _dailyRate;\n\n  // the value earned by referral per mille\n  uint256 private _referralPerMille;\n\n  // the sum of distributed tokens\n  uint256 private _totalDistributedTokens;\n\n  // map of address and received token amount\n  mapping (address => RecipientDetail) private _recipientList;\n\n  // list of addresses who received tokens\n  address[] private _recipients;\n\n  // map of address and referred addresses\n  mapping (address => ReferralDetail) private _referralList;\n\n  /**\n   * @param token Address of the token being distributed\n   * @param dailyRate Daily rate of tokens distributed\n   * @param referralPerMille The value earned by referral per mille\n   */\n  constructor(\n    address token,\n    uint256 dailyRate,\n    uint256 referralPerMille\n  )\n    public\n  {\n    require(token != address(0));\n    require(dailyRate > 0);\n    require(referralPerMille > 0);\n\n    _token = ERC20(token);\n    _dailyRate = dailyRate;\n    _referralPerMille = referralPerMille;\n  }\n\n  /**\n   * @dev fallback\n   */\n  function () external payable {\n    require(msg.value == 0);\n\n    getTokens();\n  }\n\n  /**\n   * @dev function to be called to receive tokens\n   */\n  function getTokens() public {\n    // distribute tokens\n    _distributeTokens(msg.sender, address(0));\n  }\n\n  /**\n   * @dev function to be called to receive tokens\n   * @param referral Address to an account that is referring\n   */\n  function getTokensWithReferral(address referral) public {\n    // distribute tokens\n    _distributeTokens(msg.sender, referral);\n  }\n\n  /**\n   * @return the token to distribute\n   */\n  function token() public view returns (ERC20) {\n    return _token;\n  }\n\n  /**\n   * @return the daily rate of tokens distributed\n   */\n  function dailyRate() public view returns (uint256) {\n    return _dailyRate;\n  }\n\n  /**\n   * @return the value earned by referral for each recipient\n   */\n  function referralTokens() public view returns (uint256) {\n    return _dailyRate.mul(_referralPerMille).div(1000);\n  }\n\n  /**\n   * @return the sum of distributed tokens\n   */\n  function totalDistributedTokens() public view returns (uint256) {\n    return _totalDistributedTokens;\n  }\n\n  /**\n   * @param account The address to check\n   * @return received token amount for the given address\n   */\n  function receivedTokens(address account) public view returns (uint256) {\n    return _recipientList[account].tokens;\n  }\n\n  /**\n   * @param account The address to check\n   * @return last tokens received timestamp\n   */\n  function lastUpdate(address account) public view returns (uint256) {\n    return _recipientList[account].lastUpdate;\n  }\n\n  /**\n   * @param account The address to check\n   * @return time of next available claim or zero\n   */\n  function nextClaimTime(address account) public view returns (uint256) {\n    return !_recipientList[account].exists ? 0 : _recipientList[account].lastUpdate + _pauseTime;\n  }\n\n  /**\n   * @param account The address to check\n   * @return referral for given address\n   */\n  function getReferral(address account) public view returns (address) {\n    return _recipientList[account].referral;\n  }\n\n  /**\n   * @param account The address to check\n   * @return earned tokens by referrals\n   */\n  function earnedByReferral(address account) public view returns (uint256) {\n    return _referralList[account].tokens;\n  }\n\n  /**\n   * @param account The address to check\n   * @return referred addresses for given address\n   */\n  function getReferredAddresses(address account) public view returns (address[]) {\n    return _referralList[account].recipients;\n  }\n\n  /**\n   * @param account The address to check\n   * @return referred addresses for given address\n   */\n  function getReferredAddressesLength(address account) public view returns (uint) {\n    return _referralList[account].recipients.length;\n  }\n\n  /**\n   * @dev return the number of remaining tokens to distribute\n   * @return uint256\n   */\n  function remainingTokens() public view returns (uint256) {\n    return _token.balanceOf(this);\n  }\n\n  /**\n   * @return address of a recipient by list index\n   */\n  function getRecipientAddress(uint256 index) public view returns (address) {\n    return _recipients[index];\n  }\n\n  /**\n   * @dev return the recipients length\n   * @return uint\n   */\n  function getRecipientsLength() public view returns (uint) {\n    return _recipients.length;\n  }\n\n  /**\n   * @dev distribute tokens\n   * @param account Address being distributing\n   * @param referral Address to an account that is referring\n   */\n  function _distributeTokens(address account, address referral) internal {\n    require(nextClaimTime(account) <= block.timestamp); // solium-disable-line security/no-block-members\n\n    // check if recipient exists\n    if (!_recipientList[account].exists) {\n      _recipients.push(account);\n      _recipientList[account].exists = true;\n\n      // check if valid referral\n      if (referral != address(0)) {\n        _recipientList[account].referral = referral;\n        _referralList[referral].recipients.push(account);\n      }\n    }\n\n    // update recipient status\n    _recipientList[account].lastUpdate = block.timestamp; // solium-disable-line security/no-block-members\n    _recipientList[account].tokens = _recipientList[account].tokens.add(_dailyRate);\n\n    // update faucet status\n    _totalDistributedTokens = _totalDistributedTokens.add(_dailyRate);\n\n    // transfer tokens to recipient\n    _token.transfer(account, _dailyRate);\n\n    // check referral\n    if (_recipientList[account].referral != address(0)) {\n      // referral is only the first one referring\n      address firstReferral = _recipientList[account].referral;\n\n      uint256 referralEarnedTokens = referralTokens();\n\n      // update referral status\n      _referralList[firstReferral].tokens = _referralList[firstReferral].tokens.add(referralEarnedTokens);\n\n      // update faucet status\n      _totalDistributedTokens = _totalDistributedTokens.add(referralEarnedTokens);\n\n      // transfer tokens to referral\n      _token.transfer(firstReferral, referralEarnedTokens);\n    }\n  }\n}\n",
  "sourcePath": "/Users/vittominacori/Projects/cometh/faucet-smartcontracts/contracts/faucet/TokenFaucet.sol",
  "compiler": {
    "name": "solc",
    "version": "0.4.25+commit.59dbf8f1.Emscripten.clang"
  },
  "schemaVersion": "2.0.2",
  "updatedAt": "2019-01-20T15:35:47.955Z"
}